:020000040000fa
:080000000001040000000000f3
:020000040000fa
:100200004f8220000e7922000e01880000000000bd
:100210000c000700406320000100200011000700cf
:10022000000020000000e000020032000000020098
:10023000000000001c020200000000000040da0084
:100240000000fe004440a900000020000000e00083
:100250000300320000002000a00188004440a800f4
:100260000000060091018800800078000000eb008b
:1002700015003700e280400032a0b4009101ba00be
:10028000e280400032a0b4009102ba00e280400057
:1002900032a0b4000002eb00472bde00f507b200ed
:1002a000602ce10004003a000059eb008301e900f2
:1002b000fdff3e00040037006128e100010032002c
:1002c0000082eb00040007001101ba000200e00008
:1002d000e8ff3a00000006003159ba008301e90046
:1002e0000c0032002159ba008301e90008003200f5
:1002f0000400e00003003a00e280400032a0b400b5
:10030000f5ff370011d9ba008301e900faff3a007e
:100310008100e800e180400032a0b4000000060047
:100320000000fa00e402a900e422a900e442a900c6
:10033000e462a900e4c2a900011c200091407800f9
:10034000c0cfb30000c060000014a000c0e1b7003f
:10035000210e80000000280000806000016f200056
:1003600001007000200e8800c801a800c821a80064
:10037000c841a800c881a800c8a1a800c8c1a80099
:10038000ca41a900c11c20009140780000ccb300f4
:1003900000c07000cce1b700c11c20009140780083
:1003a00000ccb30000c06000a040b300cce1b700b7
:1003b000d201a800d221a800d241a80080022000ca
:1003c0001008880005e1a800012a2000914078006b
:1003d00000ceb30000c07000a0e2b700a062a90088
:1003e0000000eb0010158800512a20009140780091
:1003f00000ceb30000c060000014a000a5e2b7006a
:10040000412a20009140780000ccb30000c0600079
:100410005040b300a4e2b700300128004015880026
:100420000000eb0050158800a1e2a80090e0a900b0
:100430000080fa00000006000000fa00b8ff070084
:10044000c1e1a900e0012000f1010700e602a800d7
:10045000803e2000ee010700e602a900e001200036
:10046000eb010700e622a800e0012000e8010700f8
:100470000000eb00b00e88000000eb00c00e88000a
:100480000000eb00d00e8800c1e1a800e0012000d0
:10049000df010700e0c0b300be0107007040880024
:1004a0008a000700220107000060fe0000003700fc
:1004b00088c0bf0001c8b300014060000004e00034
:1004c0000d003200b00e800060088800c00e800071
:1004d00070088800600880000000d1006008880073
:1004e000700880000000d1007008880011e1a800a9
:1004f00013e1a80088e0a90084c0bf000044b20056
:100500000004e0000a00320011e1a90084c0a90043
:1005100080c0b3009f010700304088003140800058
:1005200030382000808f500001003400c1e1a90064
:1005300084c0bf0001c8b300014060000004e000b7
:100540000a00320013e1a90084e0a90090c0b300c2
:100550009001070040408800414080003038200072
:10056000808f500001003400c1e1a90084c0bf00a9
:10057000684060000004e0000b00320000c8bf00cb
:100580000040e80000e8b700204080000000e800dc
:1005900020408800104080000000e80010408800e3
:1005a0000060fe008460a90011408000703e2000c1
:1005b000808f50002300360030c0b3007501070063
:1005c0005040880020c0b3007201070060408800de
:1005d0005140800080382000808f500004003c0093
:1005e0006140800080382000808f5000020034007d
:1005f000c1e1a80011003700514080006040800038
:100600008080500030062000808f500002003400af
:10061000c1e1a8000900370051408000604080001f
:1006200080805000c0f92f00808f500002003c00f5
:10063000c1e1a80001003700000000000000eb004d
:1006400010408800018020009140780000c2b30073
:1006500080cf5000040034001c000700b4000700e5
:100660000040eb0000e8b70021408000301f200070
:10067000808f50008eff3600004180000000e800af
:1006800000418800104180000000e800104188000f
:100690000141800090332000808f50000200340020
:1006a000a033200000418800114180004039200023
:1006b000808f500002003400503920001041880023
:1006c0000000eb002040880079ff37001000fa009e
:1006d0000000eb00700798006000b8005007980019
:1006e000610798006000b800300798004107980043
:1006f0006000b800008fbe0050c0b30025010700a5
:1007000020079800714080002e00900001005000ea
:100710000080e90000004000200798002e009000b3
:100720000000e00002003c000000eb002007980001
:10073000014180002e00900000805000700798005a
:100740007e009000cf80de004409dd00cc00de009a
:10075000810071004400dd00500798006107980097
:100760005e019000ee019000f0792d000100200064
:10077000800f5100818f590004003400007a2d0051
:100780000100200050079800610798005e0190006a
:10079000ee01900000862200f1ff2f00800f510033
:1007a000818f590004003c0000862200f1ff2f00d9
:1007b00050079800610798007e0090006101b90021
:1007c000804080009140800002004000838048000b
:1007d000c0408800d1408800c2408000d3408000e3
:1007e000f0792d0001002000800f5100818f590009
:1007f00004003400007a2d0001002000c040880071
:10080000d1408800c2408000d34080000086220092
:10081000f1ff2f00800f5100818f590004003c0030
:1008200000862200f1ff2f00c0408800d1408800e0
:10083000c0408000d1408000804088009140880006
:10084000c0408000d14080003007980041079800e8
:100850003e019000ce019000f0792d0001002000b3
:10086000800f5100818f590004003400007a2d0060
:100870000100200030079800410798003e019000d9
:10088000ce01900000862200f1ff2f00800f510062
:10089000818f590004003c0000862200f1ff2f00e8
:1008a00030079800410798005e009000ee0090002d
:1008b0003e019000ce019000021f400003974800c7
:1008c000f0792d0001002000be0f1000ae8f18003f
:1008d00003003400007a2d0001002000008fbe00cc
:1008e00000862200f1ff2f00be0f1000ae8f18000f
:1008f00003003c0000862200f1ff2f00008fbe00a5
:100900001e00be004b09dd004500de000000710046
:10091000c588de00008fbe00ff3ffc001e0078008f
:10092000b00e88000000fc000080fa000000060005
:100930001000fa000000eb00700798006000b8009b
:1009400050079800610798006000b80030079800d1
:10095000410798006000b800008fbe0060c0b3007f
:100960008c00070020079800714080002e00900046
:10097000010050000080e9000000400020079800be
:100980002e0090000000e00002003c000000eb00a0
:1009900020079800114180002e0090000080500038
:1009a000700798007e009000cf80de004409dd00d3
:1009b000cc00de00810071004400dd00500798008b
:1009c000610798005e019000ee019000f0792d0023
:1009d00001002000800f5100818f59000400340075
:1009e000007a2d0001002000500798006107980050
:1009f0005e019000ee01900000862200f1ff2f00c2
:100a0000800f5100818f590004003c0000862200b5
:100a1000f1ff2f0050079800610798007e009000ba
:100a20006101b900a0408000b14080000200400098
:100a300083804800e0408800f1408800e240800068
:100a4000f3408000f0792d0001002000800f51005c
:100a5000818f590004003400007a2d00010020002d
:100a6000e0408800f1408800e2408000f3408000d0
:100a700000862200f1ff2f00800f5100818f590066
:100a800004003c0000862200f1ff2f00e0408800b7
:100a9000f1408800e0408000f1408000a0408800e4
:100aa000b1408800e0408000f140800030079800ad
:100ab000410798003e019000ce019000f0792d0092
:100ac00001002000800f5100818f59000400340084
:100ad000007a2d000100200030079800410798009f
:100ae0003e019000ce01900000862200f1ff2f0011
:100af000800f5100818f590004003c0000862200c5
:100b0000f1ff2f0030079800410798005e00900029
:100b1000ee0090003e019000ce019000021f4000c8
:100b200003974800f0792d0001002000be0f10004f
:100b3000ae8f180003003400007a2d000100200061
:100b4000008fbe0000862200f1ff2f00be0f1000b4
:100b5000ae8f180003003c0000862200f1ff2f003a
:100b6000008fbe001e00be004b09dd004500de0008
:100b700000007100c588de00008fbe00ff3ffc0052
:100b80001e007800c00e88000000fc000080fa0003
:100b9000000006000200fa00004f7800ff3ffc0052
:100ba0001e4078006f4060006f416000612a2000a5
:100bb0009140780000cfb30000c060000240700098
:100bc000a6e2b7001e4078006f4060006f416000f1
:100bd000712a20009140780000cfb30000c060006f
:100be00002407000a7e2b700a022a800a0c2bf0088
:100bf000614060000004e000fcff3200a002a90098
:100c00000000fc00001480000080fa0000000600d4
:100c10000600fa00200798000000eb00000f7800a3
:100c20000c0037000000eb001007980004003700ac
:100c30000060fe001e0090000000e8001007980011
:100c40009e009000e0822600808f5000f8ff360062
:100c50001e0fe8002e0090009e0f1000f1ff3900db
:080c60000080fa00000006000c
:020000040000fa
:0200000401f009
:04000000f7ff000006
:020000040000fa
:0200000401f009
:04000400c0ff000039
:020000040000fa
:0200000401f009
:04000800cfff000026
:020000040000fa
:100008005406000054060000540600005406000080
:100018005406000054060000540600005406000070
:100028005406000054060000540600005406000060
:100038005406000054060000540600005406000050
:100048005406000054060000540600005406000040
:100058005406000054060000540600005406000030
:100068005406000054060000540600005406000020
:100078005406000054060000540600005406000010
:100088005406000054060000540600005406000000
:1000980054060000540600005406000054060000f0
:1000a80054060000540600005406000054060000e0
:1000b80054060000540600005406000054060000d0
:1000c80054060000540600005406000054060000c0
:1000d80054060000540600005406000054060000b0
:1000e80054060000540600005406000054060000a0
:0800f80054060000540600004c
:020000040000fa
:10010800540600005406000054060000540600007f
:10011800540600005406000054060000540600006f
:10012800540600005406000054060000540600005f
:10013800540600005406000054060000540600004f
:10014800540600005406000054060000540600003f
:10015800540600005406000054060000540600002f
:10016800540600005406000054060000540600001f
:10017800540600005406000054060000540600000f
:1001880054060000540600005406000054060000ff
:1001980054060000540600005406000054060000ef
:1001a80054060000540600005406000054060000df
:1001b80054060000540600005406000054060000cf
:1001c80054060000540600005406000054060000bf
:1001d80054060000540600005406000054060000af
:1001e800540600005406000054060000540600009f
:0801f80054060000540600004b
:020000040000fa
:100c6800000800002400000002000000000000004e
:100c7800000000000000000000000000000000006c
:100c8800000000000000000000000000000000005c
:100c98000000000000008600f286f200000000005c
:020000040000fa
:080ca8000040da000000fe002c
:00000001FF
